:100000000C9434000C9451000C9451000C94510049
:100010000C9451000C9451000C9451000C9451001C
:100020000C9451000C9451000C9451000C94EE006F
:100030000C9451000C9451000C9451000C945100FC
:100040000C9451000C9451000C94CF010C9451006D
:100050000C9451000C9451000C9451000C945100DC
:100060000C9451000C94510011241FBECFEFD8E026
:10007000DEBFCDBF11E0A0E0B1E0EEE9FCE002C0E0
:1000800005900D92A238B107D9F721E0A2E8B1E0BE
:1000900001C01D92AA39B207E1F70E9497020C94A1
:1000A00046060C9400009C0190E080E082179307C4
:1000B0000CF00895EFE9FFE03197F1F700C0000080
:1000C0000196F4CFE82F8730D0F50E2E000CFF0BF1
:1000D000E85BF94F0C94B9028BE292E090939101A6
:1000E0008093900122C02D9881E392E0F7CF2D9A62
:1000F000FBCF0E94920185E292E0F0CF0E94A40122
:10010000FACF2D98809192019091930196958795C1
:10011000909393018093920185E891E00E94F90405
:100120000E9453008FEF0E94620080E091E00C94E7
:10013000410180916F008D7F80936F00EDCF0E9411
:100140001602909393018093920180919201909175
:1001500093010E946A012D98CECFE1E8F0E0808102
:100160008B608083EFE6F0E0808182608083089579
:10017000CF93DF9300D000D0CDB7DEB79C0150E025
:1001800040E029833A834B835C83CA01B9010E9412
:10019000EE0220E030E040E85EE369837A838B83FF
:1001A0009C8369817A818B819C810E94540369833D
:1001B0007A838B839C8369817A818B819C810E9465
:1001C000BF02462F572F50938900409388000F900D
:1001D0000F900F900F90DF91CF9108951F920F9283
:1001E0000FB60F9211242F933F934F935F936F930A
:1001F0007F938F939F93AF93BF93EF93FF9385B1BB
:1002000091E0892785B9289B17C086E090E09093FC
:10021000890080938800FF91EF91BF91AF919F91EA
:100220008F917F916F915F914F913F912F910F909F
:100230000FBE0F901F90189580919201909193019D
:1002400049970E94B800E7CF82E290E09093C50002
:100250008093C400E1ECF0E0808188698083E2EC67
:10026000F0E0808186608083E0ECF0E08081826055
:10027000808308959091C00095FFFCCF8093C600C5
:100280000895CF93DF93EC018991811103C0DF9131
:10029000CF9108950E943A01F7CFCF93DF93CDB766
:1002A000DEB728970FB6F894DEBF0FBECDBF4AE089
:1002B000BE016F5F7F4F0E942905CE0101960E940B
:1002C000410128960FB6F894DEBF0FBECDBFDF9177
:1002D000CF910895CF93DF93CDB7DEB72C970FB6AC
:1002E000F894DEBF0FBECDBF9C0150E040E02987EF
:1002F0003A874B875C872AE0AE014F5F5F4F698585
:100300007A858B859C850E943405CE0101960E94DA
:1003100041012C960FB6F894DEBF0FBECDBFDF9122
:10032000CF91089580919201909193010E946A016A
:1003300083E20E943A0180919401909195010E947C
:100340006A0183E20C943A0186E091E00E94410147
:1003500086E391E00E94410189E491E00E9441011D
:100360008AE00E943A018DE491E00E94410180916F
:100370009201909193010E946A0183E391E00E94AF
:10038000410180E691E00E944101809194019091A9
:1003900095010E946A0183E391E00C9441011F9250
:1003A0001FB61F9211248F939F93EF93FF93809119
:1003B000C6008D30B9F090918D019A3098F4E0919B
:1003C0008D01F0E0EE57FE4F808380918D018F5FAD
:1003D00080938D01FF91EF919F918F911F901FBE90
:1003E0001F901895E0918D01F0E0EE57FE4F1082BE
:1003F00010928D018DE392E0909391018093900192
:10040000E9CFCF93DF93C0918E01D0918F01CE01C0
:100410000E949A05BC016F5F7F4F709395016093B6
:100420009401CE01DF91CF910C94A00580918E01B3
:1004300090918F0102960C949A05BC0180918E01D7
:1004400090918F0102960C94A005EFE6F0E0808178
:10045000826080830895EFE6F0E080818D7F808365
:10046000089586E990E09093930180939201EFE6DE
:10047000F0E080818260808308954AE050E070E07F
:1004800060E082E891E00E94E903CB01709397015C
:1004900060939601009799F563E771E082E891E037
:1004A0000E942005892BB9F165E771E082E891E0AF
:1004B0000E942005892B89F168E771E082E891E0CC
:1004C0000E942005892B59F16BE771E082E891E0E9
:1004D0000E942005892B29F16DE771E082E891E007
:1004E0000E942005892BF9F0809184018B32E9F07C
:1004F000809184018D3269F485E00C9462000E9441
:100500001D028091960190919701909393018093A1
:1005100092018FEFF2CF80E0F0CF82E0EECF81E06A
:10052000ECCF83E0EACF84E0E8CF86E0E6CF84B189
:10053000816284B984B18E6084B985B18E6085B9D9
:100540000E94AD000E9424010E9401020E94160236
:10055000909393018093920185E292E090939101B0
:10056000809390017894E0919001F0919101099528
:10057000FACFEE0FFF1F0590F491E02D09940E9431
:10058000330388F09F5798F0B92F9927B751B0F0EF
:10059000E1F0660F771F881F991F1AF0BA95C9F707
:1005A00014C0B13091F00E944D03B1E008950C9455
:1005B0004D03672F782F8827B85F39F0B93FCCF308
:1005C000869577956795B395D9F73EF49095809584
:1005D000709561957F4F8F4F9F4F0895E89409C0A4
:1005E00097FB3EF490958095709561957F4F8F4F66
:1005F0009F4F9923A9F0F92F96E9BB279395F6957C
:10060000879577956795B795F111F8CFFAF4BB0FF9
:1006100011F460FF1BC06F5F7F4F8F4F9F4F16C05D
:10062000882311F096E911C0772321F09EE8872FE7
:10063000762F05C0662371F096E8862F70E060E0A3
:100640002AF09A95660F771F881FDAF7880F96951C
:10065000879597F9089557FD9058440F551F59F005
:100660005F3F71F04795880F97FB991F61F09F3F9F
:1006700079F087950895121613061406551FF2CFC8
:100680004695F1DF08C0161617061806991FF1CF18
:1006900086957105610508940895E894BB2766273F
:1006A0007727CB0197F908950E9467030C94D8032C
:1006B0000E94CA0338F00E94D10320F0952311F064
:1006C0000C94C1030C94C70311240C944E030E9494
:1006D0002B0370F3959FC1F3950F50E0551F629F58
:1006E000F001729FBB27F00DB11D639FAA27F00D8B
:1006F000B11DAA1F649F6627B00DA11D661F829FB2
:100700002227B00DA11D621F739FB00DA11D621F96
:10071000839FA00D611D221F749F3327A00D611DB3
:10072000231F849F600D211D822F762F6A2F112495
:100730009F5750409AF0F1F088234AF0EE0FFF1FC8
:10074000BB1F661F771F881F91505040A9F79E3F1F
:10075000510580F00C94C1030C944E035F3FE4F309
:10076000983ED4F3869577956795B795F795E79575
:100770009F5FC1F7FE2B880F911D9695879597F97E
:10078000089597F99F6780E870E060E008959FEF13
:1007900080EC089500240A94161617061806090618
:1007A000089500240A9412161306140605060895E7
:1007B000092E0394000C11F4882352F0BB0F40F46F
:1007C000BF2B11F460FF04C06F5F7F4F8F4F9F4FAF
:1007D0000895B0E0A0E0EFEEF3E00C9402065C01B7
:1007E0006B018A016115710519F0FB01918380830A
:1007F0000115110551F0C8010297839730F040E0D0
:1008000030E020E090E0B6C05E01E501F9908F2D68
:1008100090E00E941705892BB9F7FDE2FF1256C040
:10082000F880E5012296EE24E3940115110509F400
:10083000D2C00031110509F051C020E3F21273C09B
:1008400088818F7D883509F0BAC0F9802296EE2D17
:10085000E26000E110E0812C912CA12C58E0B52E33
:1008600020E060E070E0CB012801012E000C66085A
:100870007708F0EDFF0DFA3060F03FEB3F0DF9EC3B
:100880003A3130F03FE93F0D3A3108F055C0F9EA0E
:10089000FF0DF01711060CF04FC027FD15C086168E
:1008A0009706A806B90678F0A30192010E94C30535
:1008B0006F0F711D811D911D21E061307105810552
:1008C000F0E89F0708F02FEFF990D3CF2BE2F21258
:1008D00003C0F880E5012296E12CA7CF083011056E
:1008E00021F1CCF4EE2D812C912CA12C40E4B42EDE
:1008F0000230110509F4B4CF60E070E080E090E8C8
:100900009801012E000C440B550B0E94D3054901A0
:100910005A01EE2DA5CFEE2D0A30110509F462C063
:100920000031110549F7EE2D94CFEE2D812C912C3D
:10093000A12C20E1B22E94CFC114D10431F0222396
:1009400009F12197F601D183C08327FF21C06FEF02
:100950007FEF8FEF9FE7EE2021F060E070E080E016
:1009600090E822E230E03093990120939801462FDD
:10097000372F282F642F732F822FCDB7DEB7E0E1FA
:100980000C941E06E1FF04C02297F601D183C083B8
:10099000EE2041F090958095709561957F4F8F4F37
:1009A0009F4FE5CF97FFE3CF82E290E090939901CC
:1009B000809398016FEF7FEF8FEF9FE7D8CF90E3A1
:1009C000F92E0115110509F089CFEE2D30E3F32E34
:1009D00008E010E0ABCFF0E3FF1609F431CFEE2DC5
:1009E0000AE010E08CEC882E982CA82C8CE0B82E15
:1009F00037CFFC0188279927E89421912032E9F329
:100A0000293010F02E30C8F32B3241F02D3239F45A
:100A1000689404C00E944305820F911D21912053C8
:100A20002A30C0F31EF4909581959F4F089591113F
:100A30000C948705803219F089508550C8F70895C5
:100A4000FB01DC018D91019080190110D9F3990B04
:100A50000895BB274A3031F4992322F4BDE29095E2
:100A600081959F4F0C946E05BB272A3051F4992332
:100A700042F4BDE290958095709561957F4F8F4FC0
:100A80009F4F0C944C057AE0979F902D879F802D67
:100A9000910D11240895BB27FA01A62F6217710545
:100AA00081059105330B30FB66F0AA27660F771F8F
:100AB000881F991FAA1FA21710F0A21B6395385018
:100AC000A9F7A05DAA3308F0A95DA19336F7B1118B
:100AD000B1931082CA010C948A05BB27FB015527EC
:100AE000AA27880F991FAA1FA41710F0A41B83958B
:100AF0005051B9F7A05DAA3308F0A95DA193009702
:100B000079F7B111B1931192CB010C948A05992711
:100B100088270895DC01FC01672F71917723E1F7A5
:100B2000329704C07C916D9370836291AE17BF07BA
:100B3000C8F30895A8E1B0E042E050E00C94A705A6
:100B40000E94B505272F0C94B605DC01CB01FC01F2
:100B5000F999FECF06C0F2BDE1BDF89A319600B416
:100B60000D9241505040B8F70895262FF999FECFC5
:100B70001FBA92BD81BD20BD0FB6F894FA9AF99ABA
:100B80000FBE01960895DB018F939F930E94F50598
:100B9000BF91AF91A29F800D911DA39F900DB29F19
:100BA000900D11240895A1E21A2EAA1BBB1BFD0172
:100BB0000DC0AA1FBB1FEE1FFF1FA217B307E4073C
:100BC000F50720F0A21BB30BE40BF50B661F771F94
:100BD000881F991F1A9469F7609570958095909574
:100BE0009B01AC01BD01CF0108950E943706A59F6E
:100BF000900DB49F900DA49F800D911D1124089518
:100C00002F923F924F925F926F927F928F929F921C
:100C1000AF92BF92CF92DF92EF92FF920F931F930A
:100C2000CF93DF93CDB7DEB7CA1BDB0B0FB6F894BB
:100C3000DEBF0FBECDBF09942A88398848885F84FB
:100C40006E847D848C849B84AA84B984C884DF806C
:100C5000EE80FD800C811B81AA81B981CE0FD11D50
:100C60000FB6F894DEBF0FBECDBFED010895A29F71
:100C7000B001B39FC001A39F700D811D1124911D70
:100C8000B29F700D811D1124911D0895F894FFCF1E
:0E0C90006C00770073007E00790099008100EF
:100C9E000A4F4B230A007E7E7E7E7E7E7E7E7E7E89
:100CAE00204551506C6174666F726D2D50756C736A
:100CBE006547756964696E67207E7E7E7E7E7E7E68
:100CCE007E7E7E0A0A004669726D776172652D56C8
:100CDE00657273696F6E3A2000302E39004375725B
:100CEE0072656E742056656C6F636974793A200074
:100CFE004E756D626572206F6620737461727473C7
:100D0E003A20006800662B00662D00730072657134
:020D1E000000D3
:00000001FF
